:100000000C942A010C945B010C945B010C945B0131
:100010000C945B010C945B010C945B010C945B01F0
:100020000C945B010C945B010C945B010C945B01E0
:100030000C945B010C945B010C945B010C945B01D0
:100040000C945B010C945B010C945B010C945B01C0
:100050000C945B010C945B010C945B010C94DF1716
:100060000C945B010C9453180C9429180C945B01AC
:100070000C945B010C945B010C945B010C945B0190
:100080000C945B010C945B010C945B010C945B0180
:100090000C945B010C945B010C945B010C945B0170
:1000A0000C945B010C945B010C945B010C945B0160
:1000B0000C945B010C945B010C945B010C945B0150
:1000C0000C945B010C945B010C945B010C945B0140
:1000D0000C945B010C945B010C945B010C945B0130
:1000E0000C945B010C94471B0C94B0010C94D5014B
:1000F0000C94B9010C94A4010C94A8010C94D101A6
:100100000C9492010C9427030C94EC180C94AC0101
:100110000C9474030C94D9010C948D010C949102ED
:100120000C94C7010C94EF020C94BE020C94C30112
:100130000C94E3010C94B3010C94CD020C94DF01F8
:100140000C94BD010C94E1020C94CB010000210041
:10015000240027002A002D00300033000101000098
:10016000040107010A0100002200250028002B00DD
:100170002E003100340002010000050108010B01CE
:1001800005050505070508080808020202020A0A13
:100190000808040404040101010101010101030331
:1001A000030303030303040707070C0C0C0C0C0CDC
:1001B0000C0C0202020206060606060606060B0BD9
:1001C0000B0B0B0B0B0B010210202008081020401A
:1001D000102040800201020108040201010204080B
:1001E0001020408080402010080402018004020199
:1001F00080402010080402010804020101020408E2
:1002000010204080010204081020408000000A0BEA
:1002100002090C0D0E080703040100000000000095
:1002200000000000000000000000000000000000CE
:10023000000000000000000012111000000000008B
:1002400000000000000000000000000000000000AE
:100250000000EC1811241FBECFEFD1E2DEBFCDBFEE
:1002600000E00CBF2CE0AEE6BBE001C01D92AD3853
:10027000B207E1F71BE0A0E0B2E0EAE3F4E400E05B
:100280000BBF02C007900D92AE36B107D9F711E04F
:10029000CAE2D1E000E006C021970109802FFE01EB
:1002A0000E949F1AC932D10780E00807A9F70E946F
:1002B00089180C941B220C940000282F30E0F901BF
:1002C000E45FFD4F9491F901EA53FE4F44912058A9
:1002D0003E4FF9012491222309F435C0992311F1ED
:1002E00091509231F8F4E92FF0E08827E558FE4F5D
:1002F0008F4F0C949F1AAC01B0018D01A401A8018D
:100300009201B301B901BD01C301C701CB01D10104
:10031000D5019201D901DF01E301809180008F773F
:1003200080938000E22FF0E0EE0FFF1FEA59FE4FAE
:10033000A591B4918FB7F894EC91611148C04095A4
:100340004E234C938FBF0895809180008F7DE8CF1E
:1003500080918000877FE4CF84B58F7784BDE2CF22
:1003600084B58F7DFBCF8091B0008F778093B000F4
:10037000D9CF8091B0008F7DF9CF809190008F7799
:1003800080939000CFCF809190008F7DF9CF8091A6
:100390009000877FF5CF8091A0008F778093A00099
:1003A000C1CF8091A0008F7DF9CF8091A000877F81
:1003B000F5CF809120018F7780932001B3CF80917A
:1003C00020018F7DF9CF80912001877FF5CF4E2BC3
:1003D000B8CF3FB7F8948091E20B9091E30BA091D6
:1003E000E40BB091E50B26B5A89B05C02F3F19F093
:1003F0000196A11DB11D3FBFBA2FA92F982F8827A5
:10040000BC01CD01620F711D811D911D42E0660F7F
:10041000771F881F991F4A95D1F7089521E030E092
:10042000FC0140895189FB0180899189481759074E
:1004300011F030E020E0C9010895089590E080E0D7
:100440000895CF93DF939C0140E050E060E070E0BE
:1004500080E090E0DF91CF910895FC01848595853F
:100460000895FC017587648708952F923F924F92FB
:100470005F926F927F928F929F92AF92BF92CF9234
:10048000DF92EF92FF920F931F93CF93DF9300D0F1
:1004900000D0CDB7DEB70E94471C09F020F5E1E09F
:1004A000F0E00E94471C10F0F0E0E0E08827992778
:1004B0008E1B9F0B26960FB6F894DEBF0FBECDBFE6
:1004C000DF91CF911F910F91FF90EF90DF90CF9030
:1004D000BF90AF909F908F907F906F905F904F9064
:1004E0003F902F90089581E090E0E4CFFC012681B9
:1004F000378140855185628573858485958508950A
:10050000FC01868597850895FC01778766870895A5
:1005100021E030E06817790711F030E020E0C901F0
:100520000895AF92BF92CF92DF92EF92FF920F9316
:100530001F93CF93DF936C017B018B01040F151F79
:10054000EB015E01AE18BF08C017D10759F06991E1
:10055000D601ED91FC910190F081E02DC601199535
:10056000892B79F7C501DF91CF911F910F91FF90F2
:10057000EF90DF90CF90BF90AF900895FC01538D26
:10058000448D252F30E0842F90E0821B930B54176D
:1005900010F0CF96089501970895FC01918D828DFA
:1005A000981761F0A28DAE0FBF2FB11D5D968C9193
:1005B000928D9F5F9F73928F90E008958FEF9FEFD2
:1005C0000895FC01918D828D981731F0828DE80F8E
:1005D000F11D858D90E008958FEF9FEF0895FC0148
:1005E000918D228D892F90E0805C9F4F821B910915
:1005F0008F739927089586EE9BE00E94EF0221E019
:10060000892B09F420E0822F0895FC01A48DA80F06
:10061000B92FB11DA35ABF4F2C91848D90E0019644
:100620008F739927848FA689B7892C93A089B18964
:100630008C91837080648C93938D848D981306C005
:100640000288F389E02D80818F7D80830895EF9269
:10065000FF920F931F93CF93DF93EC0181E0888F7C
:100660009B8D8C8D98131AC0E889F989808185FF4C
:1006700015C09FB7F894EE89FF896083E889F989EE
:1006800080818370806480839FBF81E090E0DF91F0
:10069000CF911F910F91FF90EF900895F62E0B8D43
:1006A00010E00F5F1F4F0F731127E02E8C8D8E11FE
:1006B0000CC00FB607FCFACFE889F989808185FF65
:1006C000F5CFCE010E940503F1CFEB8DEC0FFD2F8E
:1006D000F11DE35AFF4FF0829FB7F8940B8FEA8920
:1006E000FB8980818062CFCFCF93DF93EC01888D2F
:1006F0008823B9F0AA89BB89E889F9898C9185FD9D
:1007000003C0808186FD0DC00FB607FCF7CF8C912A
:1007100085FFF2CF808185FFEDCFCE010E940503DA
:10072000E9CFDF91CF91089580E090E0892B29F007
:100730000E94FB0281110E94000080E090E0892B62
:1007400049F080E090E0892B29F00E94000081119F
:100750000E94000080E090E0892B49F080E090E06A
:10076000892B29F00E94000081110E94000080E086
:1007700090E0892B49F080E090E0892B29F00E94DD
:10078000000081110C940000089580917D0B9091E0
:100790007E0B181619067CF480917D0B90917E0BD0
:1007A000019790937E0B80937D0B892B09F47894AD
:1007B00090E080E0089581E090E0089580917D0BC5
:1007C00090917E0B9C012F5F3F4F30937E0B2093C7
:1007D0007D0B892B09F4F89490E080E008952F9226
:1007E0003F924F925F926F927F928F929F92AF92C1
:1007F000BF92CF92DF92EF92FF920F931F93CF930E
:10080000DF93CDB7DEB72E970FB6F894DEBF0FBEDD
:10081000CDBFD501F90120803180428053806480B2
:10082000758086809780E084F18402851385E98253
:10083000FA820B831C83FC90FE8611960C91119713
:100840000D8712961C911297198713962C91139766
:100850002A871496FC9114971596EC911597169685
:100860003C9116973B8717964C9117974C87189693
:10087000ED90FD900D911C911B97ED82FE820F83F0
:1008800018879101A201B301C401AE84BD84C9845B
:10089000DA84EF2EFE2E0B851C850E94471CDCF1AE
:1008A0000E94471C09F0A4F509811A812B813C8123
:1008B0008D819E81AF81B885081719072A073B07EC
:1008C00050F181E090E0780189012D813E814F81D6
:1008D00058852E153F054007510708F080E02E96F9
:1008E0000FB6F894DEBF0FBECDBFDF91CF911F9141
:1008F0000F91FF90EF90DF90CF90BF90AF909F90BF
:100900008F907F906F905F904F903F902F900895C1
:1009100081E090E0E4CF8FEF9FEFE1CF009769F0A7
:10092000DC012D913C9111972130310531F0529627
:10093000ED91FC9182819381089590E080E008958B
:100940002F923F924F925F926F927F928F929F92DF
:10095000AF92BF92CF92DF92EF92FF920F931F93CD
:10096000CF93DF93CDB7DEB760970FB6F894DEBFB5
:100970000FBECDBF009709F4F5C0DC012D913C916D
:100980002130310509F4EEC0988B8F87FC01A289D4
:10099000B38912968D919C9113979C838B83C90187
:1009A000019791838083880F991FFD01E80FF91F3C
:1009B0008081918113969C938E931297AF85B8890D
:1009C0005296ED91FC915397428053801896ED9189
:1009D000FC91C20119952F83388749875A876B8705
:1009E0007C878D879E8722242394312C3101660CCD
:1009F000771CEF85F889808191816816790670F1FE
:100A0000C101880F991FAF85B8895296ED91FC916D
:100A10005397E80FF91F518240821C96ED91FC918B
:100A2000B101C20119958B819C8160960FB6F89433
:100A3000DEBF0FBECDBFDF91CF911F910F91FF9011
:100A4000EF90DF90CF90BF90AF909F908F907F906E
:100A50006F905F904F903F902F900895F3013196E3
:100A6000FA83E983E817F90780F5AF85B889169608
:100A70000D90BC91A02DBE83AD83EF85F889A2892E
:100A8000B38989809A80880C991CA80DB91D20858E
:100A900031858D919C91F901199559016A017B016C
:100AA0008C01EF85F889A289B389A80DB91D129729
:100AB000208531858D919C91F9011995ED81FE81FB
:100AC0001995019711F469807A80EF85F889A289D8
:100AD000B3894101880C991C6114710409F490CF09
:100AE000268137813E832D83C301880F991F9A8306
:100AF0008983A80FB91F208531858D919C91F901BB
:100B0000199559016A017B018C012F81388549852E
:100B10005A856B857C858D859E85ED81FE81199535
:100B2000019709F06DCFEF85F88982899389E98172
:100B3000FA81E80FF91F20813181880D991DDC01B0
:100B40002D933C93EF85F88982899389880E991EAD
:100B50000484F585E02DB101D4018D919C91199506
:100B6000130144CF1C821B825ECF08950F931F9305
:100B7000CF93DF93FC018FEF9FEF6230710580F11F
:100B8000C281D38189E4869F9001879F300D112413
:100B90002C233D23868197814FEF5FEFD901AA0F68
:100BA000BB1FA80FB91F0D911C91119701151105BD
:100BB000E1F4208531852F5F3F4F3187208757FD36
:100BC00021C0228533852150310933872287440F84
:100BD000551F480F591FFA017183608381E090E02F
:100BE000DF91CF911F910F9108950617170769F0B4
:100BF0000130110511F457FDA9012F563C4E2C234D
:100C00003D23CCCF6D937C93E9CF90E080E0E8CF9B
:100C1000FC0101900020E9F73197AF01481B590B07
:100C2000BC0186EE9BE00C9491028F929F92AF9252
:100C3000BF92CF92DF92EF92FF920F931F93CF93C9
:100C4000DF938C01DC011696ED91FC9182E090E03F
:100C50009183808383E090E09383828384E090E0BB
:100C60009583848385E090E09783868386E090E097
:100C70009187808787E090E093878287E091F60BE9
:100C8000F091F70B82E08083E091F20BF091F30B8F
:100C90001082E091F40BF091F50B8FEC80831092B1
:100CA000FE0BE091FA0BF091FB0B86E08083E09164
:100CB000F80BF091F90B808180618083E091F80B53
:100CC000F091F90B808188608083E091F80BF091BE
:100CD000F90B808180688083E091F80BF091F90B2B
:100CE00080818F7D80838BE792E00E9408068DEAE9
:100CF00092E00E940806D0E0C0E0D8011696ED917F
:100D0000FC91EC0FFD1F808191819927FC01EA5332
:100D1000FE4F249180589E4FFC018491882399F0C6
:100D200090E0880F991FFC01E45BFE4FA591B49100
:100D3000FC01EA59FE4F859194918FB7F894EC919C
:100D4000E22BEC938FBFD8011696ED91FC91EC0F3E
:100D5000FD1F61E080810E945D010E94E9014B015D
:100D60005C0184E6C82ED12CE12CF12C0E94E90113
:100D7000681979098A099B09683E734081059105C4
:100D8000A8F3B1E0CB1AD108E108F108E8EE8E0E25
:100D9000E3E09E1EA11CB11CC114D104E104F104C6
:100DA00029F7D8011696ED91FC91EC0FFD1F60E03C
:100DB00080810E945D012296CC30D10509F09DCF43
:100DC000DF91CF911F910F91FF90EF90DF90CF9027
:100DD000BF90AF909F908F9008954F925F926F92C7
:100DE0007F928F929F92AF92BF92CF92DF92EF92BB
:100DF000FF920F931F93CF93DF93EC010E94E901C1
:100E00006B017C018091790B90917A0BA0917B0B07
:100E1000B0917C0BC816D906EA06FB0698F48091BF
:100E2000750B9091760BA091770BB091780B019692
:100E3000A11DB11D8093750B9093760BA093770B3A
:100E4000B093780B4090750B5090760B6090770BB9
:100E50007090780B9201A30160E070E080E090E078
:100E600000E20E94101C4901B42F970186018C28D2
:100E7000912ABE29532B28EEA22E33E0B32EC12C8B
:100E8000D12CE12CF12C00E010E094014B2F0E94BA
:100E9000A71A288339834A835B836C837D838E837F
:100EA0009F8390E080E0DF91CF911F910F91FF90A1
:100EB000EF90DF90CF90BF90AF909F908F907F90FA
:100EC0006F905F904F900895DC0112962D913C91A8
:100ED000139737FD10C0ED91FC91220F331F8681CF
:100EE0009781280F391FF90180819181009719F0AE
:100EF0008130910511F40E948D1E0895CF93DF93E8
:100F0000FC01892B11F40E948D1E428153819A01AC
:100F10002F5F3F4FA081B18118968D919C911997B9
:100F2000892B49F014968D919C911597440F551F6C
:100F30008217930729F48FEF9FEF15C02F5F3F4F64
:100F400028173907C0F74E5F5F4F1696CD91DC9199
:100F50001797C40FD51F688179816230710570F3CE
:100F6000C90122839383DF91CF9108952F923F92FD
:100F70004F925F926F927F928F929F92AF92BF92A9
:100F8000CF92DF92EF92FF920F931F93CF93DF9355
:100F9000CDB7DEB76A970FB6F894DEBF0FBECDBFF0
:100FA000FC01C982DA82EB82FC820D831E832F83CF
:100FB000388749875A876B877C87892B11F40E9471
:100FC0008D1EB981AA81EB80ED8AFC80FE8A0D819D
:100FD0000F8B1E81188F2F81298F38853A8FE984D6
:100FE000FA840B851C85ED86FE860F87188B228878
:100FF00033884488558866887788808C918C028DE8
:10100000138D248D358D098B1A8B2B8B3C8B910185
:10101000A201B301C401AB2EBA2ECD88DE88EF88C1
:10102000F88C098D1A8D0E94471C11F00CF03FC0FE
:101030000E94471CCCF12D853E854F8558898989B2
:101040009A89AB89BC89281739074A075B0778F169
:1010500091E080E0E988FA880B891C89E216F306A2
:101060000407150708F090E0292F382F81E01216A9
:1010700013060CF080E06A960FB6F894DEBF0FBE40
:10108000CDBFDF91CF911F910F91FF90EF90DF9037
:10109000CF90BF90AF909F908F907F906F905F9018
:1010A0004F903F902F90089521E030E0DFCF2FEF59
:1010B0003FEFDCCF6F927F928F929F92AF92BF9261
:1010C000CF92DF92EF92FF920F931F93CF93DF9314
:1010D0004C015B016A01390184E190E00E94871CA8
:1010E000EC01892B69F086E190E00E94871C9B8BC4
:1010F0008A8B892BA9F4CE010E94231DD0E0C0E089
:10110000CE01DF91CF911F910F91FF90EF90DF9073
:10111000CF90BF90AF909F908F907F906F900895E9
:1011200081E090E0998388838BE090E09D838C83BD
:101130009B838A839F828E82B986A886DB86CA8635
:101140007D866C861F870E87F98AE88AD9CF0F9330
:101150001F93CF93DF938C01C1E0D0E0F801828927
:10116000938920813181C217D30748F00E94231D43
:10117000C801DF91CF911F910F910C94231D9E0107
:10118000220F331F820F931FFC01808191810097F2
:1011900039F0FC0126853785232B11F00E94231D91
:1011A0002196DCCFCF93DF93EC01892B31F08E8138
:1011B0009F81009711F00E94231DCE01DF91CF91F6
:1011C0000C94231DCF93DF93CDB7DEB7C058D10960
:1011D0000FB6F894DEBF0FBECDBF9B01AC0160E837
:1011E00070E0CE0101960E943C1FCE0101960E9444
:1011F0000806C058DF4F0FB6F894DEBF0FBECDBF54
:10120000DF91CF910895AF92BF92CF92DF92EF928C
:10121000FF920F931F93CF93DF93E0910802F09119
:101220000902E230F10514F4E2E0F0E0E217F3071E
:101230000CF454C08A01A72EB62EC92ED82EA82F82
:10124000B92FED0109900020E9F72197CA1BDB0BAC
:10125000A62FB72FFD0101900020E9F73197EA1B77
:10126000FB0BCE0FDF1FCE0181960E94871C7C01F5
:10127000AF92BF92CF92DF9280EB92E09F938F93D9
:10128000A096DF93CF93FF92EF920E94FF1EE09112
:101290007F0BF091800B8DB79EB70A960FB6F8942E
:1012A0009EBF0FBE8DBF3097A9F4A801B7018091F2
:1012B000850C9091860C0E94751FC701DF91CF911C
:1012C0001F910F91FF90EF90DF90CF90BF90AF9064
:1012D0000C94231DB801C7011995EFCFDF91CF9171
:1012E0001F910F91FF90EF90DF90CF90BF90AF9044
:1012F0000895CF93DF93CDB7DEB724E030E0AE01A1
:10130000485F5F4F66EB72E082EC92E00E94030957
:10131000DF91CF9108950F931F93CF93DF93EC014B
:1013200010E000E0EE81FF81E00FF11F60E08081BE
:101330000E945D010E5F1F4F0C30110599F78885E3
:101340009985880F991FEE81FF81E80FF91F61E0F1
:1013500080810E945D0188859985880F991FEE81A3
:10136000FF81E80FF91F81818F9380818F9386EB36
:1013700092E09F938F930E9479092A853B85888507
:101380009985820F931F998788870F900F900F90F0
:101390000F908530910511F0892B29F43195219515
:1013A00031093B872A87DF91CF911F910F910895D3
:1013B000CF93DF93CDB7DEB7AE014A5F5F4FFA013F
:1013C00061917191AF0130E020E08AEC92E00E94DF
:1013D000030981E090E00E941B222F923F924F92DE
:1013E0005F926F927F928F929F92AF92BF92CF92B5
:1013F000DF92EF92FF920F931F93CF93DF93EC0155
:101400003B0157FF06C088ED92E09F938F930E94A7
:10141000D809209709F45FC0888199814817590736
:1014200008F059C02A01440C551CEA89FB89E40DD7
:10143000F51D808091808114910409F44CC02E80A8
:101440003F80E885F985C301199559016A017B013F
:101450008C01E885F985C4011995F1011995019769
:10146000D1F12E803F80E885F985C3011995590196
:101470006A017B018C01E885F985C4011995F101A8
:101480001995892BE1F0A201B301CE010E94ED096B
:101490004C01892BE1F0C401DF91CF911F910F9195
:1014A000FF90EF90DF90CF90BF90AF909F908F9084
:1014B0007F906F905F904F903F902F900895EE85B2
:1014C000FF85B301C4011995892BE9F2E4CFA2018C
:1014D0004F5F5F4F96CF912C812CDDCF2F923F92A3
:1014E0004F925F926F927F928F929F92AF92BF9234
:1014F000CF92DF92EF92FF920F931F93CF93DF93E0
:10150000CDB7DEB760970FB6F894DEBF0FBECDBF84
:10151000CE0101960E94ED06892B09F099C00E9428
:10152000C5032090000230900102409002025090CA
:101530000302609004027090050280900602909071
:1015400007020E94DE0329813A814B815C816D8113
:101550007E818F81988551016201730184010E940F
:10156000471C7CF49101A201B301C401A1E00E94D7
:10157000321C29833A834B835C836D837E838F8304
:101580009887898189878A818A878B818B878C81DB
:101590008C878D818D878E818E878F818F878885BF
:1015A000888B0E94C503A0900002B0900102C090F9
:1015B0000202D0900302E0900402F0900502009134
:1015C0000602109107029101A201B301C4010E9419
:1015D000471C19F00E94DE03A2CF89858093000288
:1015E0008A85809301028B85809302028C8580938B
:1015F00003028D85809304028E85809305028F857A
:10160000809306028889809307020E94DE03298165
:101610003A814B815C816D817E818F819885609656
:101620000FB6F894DEBF0FBECDBFDF91CF911F91F3
:101630000F91FF90EF90DF90CF90BF90AF909F9071
:101640008F907F906F905F904F903F902F90089574
:1016500088E592E09F938F931F9289E88F9385E1AD
:1016600093E09F938F9382E693E09F938F930E94E2
:10167000D809009711F40E948D1EFC0180A191A150
:101680000E94A004009771F464E170E081E090E0B2
:101690000E946B1C009731F485EC93E09F938F932D
:1016A0000E94D8090895CF93DF93CDB7DEB7AE017E
:1016B0004A5F5F4FFA0161917191AF0121E030E023
:1016C00084ED93E00E940309DF91CF9108954F923A
:1016D0005F926F927F928F929F92AF92BF92CF92C2
:1016E000DF92EF92FF920F931F93CF93DF930097B8
:1016F00091F0EC01EE80FF80E114F104F9F4DF9346
:101700008F938EED93E09F938F930E94530B0F90D6
:101710000F900F900F9090E080E0DF91CF911F919C
:101720000F91FF90EF90DF90CF90BF90AF909F9080
:101730008F907F906F905F904F900895E1E0EE1A48
:10174000F108FF82EE82E114F10429F78881998182
:10175000892BE1F10E94C503892B71F080E292E0B0
:101760009F938F931F9280E98F9380E194E09F93E2
:101770008F9382E694E01AC08091880B9091890B38
:1017800001979093890B8093880B0E94DE03892B2D
:1017900089F080E292E09F938F931F9282E98F936A
:1017A00080E194E09F938F9387ED94E09F938F93D4
:1017B0000E94D809EC81FD810280F381E02D8881AF
:1017C0009981309771F01995198218820E94C5038A
:1017D000892B51F085E392E09F938F931F9280EBCA
:1017E000C3CF0E94231DF0CF8091700B9091710B9D
:1017F000892BE9F56CE070E081E090E00E946B1CC1
:101800008C01892B81F41092710B1092700B0E9445
:10181000DE03892B09F484C085E392E09F938F93C4
:101820001F9284EBBCCF84E090E0F8019183808329
:1018300080E190E0958384838FE090E093838283BE
:1018400062E070E080E190E00E946B1CF8019783F9
:101850008683892B21F4C8010E94D208D4CF118637
:101860001086138612861093710B0093700B0091F3
:10187000700B1091710BF801808591858115924054
:1018800008F087C0BE01C8010E94B6054C01F801EE
:10189000A480B5806085718582859385680F791FE6
:1018A00090E080E00E947B192B013C01B50190E0A3
:1018B00080E00E947B192AE939E949E55FE30E944B
:1018C000BD199B01AC01C301B2010E94B81987FD8B
:1018D0003DC0F80166807780208131812F5F3F4FC6
:1018E0003183208381E090E002C0880F991F2A9500
:1018F000E2F7958384839C0121503109338322834D
:1019000062E070E00E946B1CF80197838683118669
:101910001086138612866301892B91F40E948D1E16
:101920008AE495E09F938F930E94D809F601619114
:1019300071916F01C8010E94B605FFEFEF1AFF0A0F
:10194000AE14BF0499F7C3010E94231D892861F4D6
:10195000DF93CF9381E895E09F938F930E94530B81
:101960000F900F900F900F908091860B9091870BA6
:1019700001979093870B8093860B0E94DE03892B3F
:1019800009F4C9CE85E392E09F938F931F9286EC72
:1019900006CFCE010E94231DE7CFCF93DF93CDB7B3
:1019A000DEB7AE014A5F5F4FFA0161917191AF01FD
:1019B00030E020E080ED92E00E940309DF91CF91BA
:1019C00008952F923F924F925F926F927F928F92E3
:1019D0009F92AF92BF92CF92DF92EF92FF920F93BE
:1019E0001F93CF93DF93CDB7DEB72E970FB6F89442
:1019F000DEBF0FBECDBF0097D9F481E090E02E96F8
:101A00000FB6F894DEBF0FBECDBFDF91CF911F910F
:101A10000F91FF90EF90DF90CF90BF90AF909F908D
:101A20008F907F906F905F904F903F902F90089590
:101A30003B019E878D87DC018D909C9011971296BB
:101A40008D919C91139788169906B0F014968D91FC
:101A50009C911597880E991EB401660F771F5296B8
:101A60008D919C910E94AC1D009739F2ED85FE8509
:101A7000938B828B93828282AD85BE858D909C9064
:101A80001197C401019611969C938E93C401880FFF
:101A9000991FFD01A289B389A80FB91F6D927C928D
:101AA000DF010288F389E02DE80FF91F6080718063
:101AB0001896ED91FC91C30119952D833E834F83B8
:101AC000588769877A878B879C8714013694279477
:101AD000ED85FE85A289B3892401440C551CF2E0F2
:101AE0008F16910498F4AD85BE855296ED91FC91C8
:101AF0005397E40DF51D718260821C96ED91FC9167
:101B0000B401C301199590E080E079CFED85FE85A1
:101B10000680F781E02DFC83EB83C101880F991FBC
:101B20009A838983A80FB91FED85FE8520853185AD
:101B30008D919C91F9011995AD80BE80CF80D8849C
:101B4000E984FA840B851C85EB81FC81199501974A
:101B500051F6ED85FE8582899389E981FA81E80F46
:101B6000F91F20813181840D951DDC012D933C935B
:101B7000ED85FE85A289B389A40DB51D2485358523
:101B8000B4018D919C91F901199541019FCF009766
:101B900011F40E948D1EFB01228D338D232B99F4AD
:101BA00021E030E0338F228F825B9F4FFC018081E8
:101BB00091810E94E10C892B31F081EC95E09F939B
:101BC0008F930E94D80908952F923F924F925F926F
:101BD0006F927F928F929F92AF92BF92CF92DF923D
:101BE000EF92FF920F931F93CF93DF9300D000D01B
:101BF000CDB7DEB74C018B01892B09F009C10E94DA
:101C00008D1E2701440C551CD8015496ED91FC9172
:101C10005597E40DF51D0190F081E02D3097D1F03E
:101C200080818823B9F05896ED91FC91E40DF51D63
:101C3000208131813C832B83312C212CD801569675
:101C4000ED91FC91E40DF51D8081918128163906F6
:101C50000CF48FC0BFEFEB1AFB0AF801828993895D
:101C6000E816F90670F22D813E812115310509F43F
:101C700067C0D9015C962C915C975D963C915D970D
:101C80005E964C915E975F965C915F9790966C9193
:101C9000909791967C91919792968C91929793962A
:101CA0009C91A0E00E94501C0CF4B9C00E946E0AE6
:101CB00019012A013B01B82F9983ED81FE81B48C73
:101CC000C58CD68CE78CF0A001A112A1A3A02B2D6E
:101CD0003C2D4D2D5E2D6F2D702F812F9A2DA0E064
:101CE0000E94501CC9F0F401A680B780C084D18442
:101CF000E284F384048515850E94291C59016A0138
:101D00007B018C019101A201B3018B2F99810E946B
:101D1000471C09F00CF483C0AD81BE819596ED910E
:101D2000FC919697309749F012968D919C91199558
:101D30006D817E81C4010E94E40DED81FE8114A2BB
:101D400026960FB6F894DEBF0FBECDBFDF91CF91C0
:101D50001F910F91FF90EF90DF90CF90BF90AF90C9
:101D60009F908F907F906F905F904F903F902F90BB
:101D70000895AB81BC81ED91FD91BC83AB83FA8367
:101D8000E983D12CC12CEF2BB9F5BFEF2B1A3B0AFD
:101D900055CFA981BA811A96ED91FC91C601880FA1
:101DA000991FE80FF91FA080B180A114B10409F1B7
:101DB000ED81FE81AE16BF06E1F0FFEF6F1A7F0ADC
:101DC00021E06216710439F4D50150968D919C91F1
:101DD00008171907D1F0ED81FE81309721F0BF017E
:101DE000C4010E94C70DB501C4010E94C70D1E8227
:101DF0001D82FFEFCF1ADF0AA981BA811C968D914F
:101E00009C91C816D9062CF2C0CFBE82AD82F1CF0C
:101E1000F12CE12C712C612C1E821D821ECFED81D4
:101E2000FE8182819381DC011396FC93EE931297DD
:101E30000190F081E02D1995AD81BE811296ED9152
:101E4000FC91139713821282BD0174CF2F923F929F
:101E50004F925F926F927F928F929F92AF92BF92BA
:101E6000CF92DF92EF92FF920F931F93CF93DF9366
:101E7000CDB7DEB72F970FB6F894DEBF0FBECDBF3C
:101E80009F838E83825B9F4F9A838983A981BA81C6
:101E90008D919C91009739F0FC0120813181213096
:101EA000310509F072C0EE81FF81B681A781F0850E
:101EB000FE87EE81FF81F185FF87EE81FF81F2854C
:101EC000F983EE81FF81F385FB83EE81FF81F48549
:101ED000FC83EE81FF81F585FD83EE81FF81E68441
:101EE000F78400891189EA86FB860C871D87228882
:101EF00033884488558866887788808C918CE28CFA
:101F0000F38C048D158DEE82FF820887198791016D
:101F1000A201B301C401AB2EBA2ECE84DF84E980C6
:101F2000FB800C811D810E94471C11F00CF0D8C071
:101F30000E94471C0CF4D7C081E090E0EE80FF8047
:101F4000088519852A853B854C855D852E153F05BD
:101F50004007510708F080E02F960FB6F894DEBFD7
:101F60000FBECDBFDF91CF911F910F91FF90EF90EA
:101F7000DF90CF90BF90AF909F908F907F906F90A9
:101F80005F904F903F902F9008950E94A0044C01C5
:101F9000E2E0F0E0DC015B96FC93EE935A975C96EE
:101FA0002C915C975D963C915D975E964C915E9707
:101FB0005F965C915F9790966C91909791967C91CB
:101FC000919792968C91929793969C91A0E00E9403
:101FD000501C0CF46DC00E946E0A322E432E542EFB
:101FE000652E762E7B83F82FE92FD4015C96BC906A
:101FF0005C975D96CC905D975E96DC905E975F9661
:10200000EC905F979096FC90909791960C91919799
:1020100092961C91929793962C902B2D3C2D4D2DA2
:102020005E2D6F2D702F812F922DA0E00E94501CED
:1020300059F1AE81BF811696AC9016971796BC9059
:1020400017971896CC9018971996DC9019971A96AE
:10205000EC901A971B96FC901B971C960C911C9762
:102060001D961C910E94291C59016A017B018C015B
:10207000232D342D452D562D672D7B818F2F9E2F9F
:102080000E94471CA9F0A4F0D4019596ED91FC9113
:102090009697309749F012968D919C911995B401BD
:1020A0008E819F810E94E40DF401138E128EEECE7C
:1020B000EE81FF81EF2B11F40E948D1ED401129648
:1020C0008D919C911397FC0193828282ED91FC91FA
:1020D0001995D4011296ED91FC9113821282DFCFF3
:1020E00081E090E039CF80E0FCCFEF92FF920F9338
:1020F0001F93CF93DF938C01009731F50E948D1EC3
:10210000D801DE96ED91FC91CE01880F991FE80F62
:10211000F91F608171816115710541F0FB0186A590
:1021200097A5892B19F4C8010E94C70D2196D701E4
:102130008D919C91C817D9071CF3DF91CF911F9106
:102140000F91FF90EF900895D0E0C0E07C01F0E4A3
:10215000EF0EF11CECCFFB01009711F40E948D1ED5
:1021600010821182128213821482158216821782C3
:102170001086118612861386118A108A138A128A93
:10218000FC0180A191A10C94E10CAF92BF92CF927F
:10219000DF92EF92FF920F931F93CF93DF93EC01A7
:1021A000892B11F40E948D1E8981882311F1809161
:1021B0006E0B90916F0B009739F53EA12FA188A56A
:1021C00099A54CA15DA1481759071CF43AA12BA170
:1021D000CA01E32FF22F30E020E0281739070CF175
:1021E0008AA59BA530E020E0892B09F073C019A6D1
:1021F00018A6DF91CF911F910F91FF90EF90DF9084
:10220000CF90BF90AF9008950E94670BE0916E0B46
:10221000F0916F0B8085918590936F0B80936E0B7F
:10222000C6CFA191B1911C922F5F3F4FD6CF6901CC
:10223000CC0CDD1C79014FEFE41AF40AA6014E5FC5
:102240005F4F480F591F6417750710F45DA74CA71F
:10225000ACA4BDA46EA57FA5A616B70660F148A9DB
:1022600059A94F5F5F4F59AB48AB681B790B2617D5
:102270003707F0F561157105F1F0A81AB90A950153
:10228000359527956217730708F48CCF8B01000FE3
:10229000111FB8010E94AC1D009709F483CF1BAA3F
:1022A0001AAA9BA78AA7A80EB91EBDA6ACA6800F26
:1022B000911F9FA78EA78AA59BA5C80ED91EC114E2
:1022C000D10439F0D601ED91FC91309711F01182D3
:1022D000108297016CA57DA58AA59BA5AB01481B23
:1022E000590B559547952417350708F4A0CF7FCF94
:1022F000660F771FBCCF2F923F924F925F926F92E3
:102300007F928F929F92AF92BF92CF92DF92EF9285
:10231000FF920F931F93CF93DF93CDB7DEB7C154D6
:10232000D1090FB6F894DEBF0FBECDBF4C01280116
:1023300029AF3BAF4CAF5DAF1B01980149AD5BAD21
:102340006CAD7DADC101A0E00E94501C19F56BEE93
:1023500075E0C4010E94AB1E66246394712CC30116
:10236000CF5BDF4F0FB6F894DEBF0FBECDBFDF915E
:10237000CF911F910F91FF90EF90DF90CF90BF9082
:10238000AF909F908F907F906F905F904F903F9015
:102390002F90089549AD5BAD6CAD7DADA0E00E947E
:1023A000501C0CF0C8C06DEE75E0C4010E94AB1E5D
:1023B0002FEF821A920A81E090E09FAF8EAFFE016C
:1023C00031963F0122961FAE1EAE2297920149AD73
:1023D0005BAD6CAD7DADC101A0E00E94501C11F061
:1023E0000CF0ACC02296EEADFFAD2297319733E0F2
:1023F000EE0FFF1F3A95E1F781E090E08C0F9D1FF3
:10240000E80FF91F208131814281538164817581F8
:10241000A8EEAA2EB3E0BB2EC12CD12CE12CF12CBE
:1024200000E010E0868197810E94391B89011A0122
:102430002B013C017F928F935F926F933F924F935A
:102440001F932F938FEE95E09F938F931F9285E0BC
:102450008F939F928F920E94FF1E0FB6F894DEBF5B
:102460000FBECDBF9801A101B201C301A3E60E9436
:10247000501C09F00CF494C0F3E08F0E911C6EAC6C
:102480007FAC23E0620E711C22964EAC5FAC2297AB
:10249000120123E0220C331C2A95E1F7C1010897B1
:1024A0001C01E1E0F0E0EC0FFD1F2E0E3F1E861830
:1024B0009708C401860D971D9AAF89AF91E0491A1C
:1024C0005108141415040CF04ACFE8E02E1A310814
:1024D000F10120813181428153816481758188EECF
:1024E000A82E93E0B92EC12CD12CE12CF12C00E0C8
:1024F00010E0868197810E94391B9F938F937F9371
:102500006F935F934F933F932F9384EF95E09F9347
:102510008F931F92F8E0FF932AAD2F9389AD8F938D
:102520000E94FF1E94E0690E711C0FB6F894DEBF86
:102530000FBECDBFBECF1FAE1EAE41CF22968EAD19
:102540009FAD2297019622969FAF8EAF2297F301FF
:102550004082518229AD22838BAD83839CAD9483CD
:102560002DAD25832682378288E0680E711C18EE17
:10257000A12E03E0B02EC12CD12CE12CF12C00E0D7
:1025800010E0920149AD5BAD692F7DADC1010E94A4
:102590003B1B290149AF5BAF6CAF7DAF1C0116CF70
:1025A000A9E00E94501C51F04CF0F2E08F0E911CFB
:1025B0006EAC7FAC22E0620E711C66CF8FEF881A82
:1025C000980A6EAC7FAC9FEF691A790A5DCF8F9243
:1025D0009F92AF92BF92CF92DF92EF92FF920F93B2
:1025E0001F93CF93DF93CDB7DEB76D970FB6F894F7
:1025F000DEBF0FBECDBF8091740B8111FBC181E0A6
:102600008093740B80918A0B882309F4E5C0809134
:10261000DC0B882309F4EEC18AE89BE00E94C51018
:10262000E091A80BF091A90B309709F08BC0209195
:10263000900B3091910B4091920B5091930B6091C4
:10264000940B7091950B8091960B9091970BA090A5
:102650001202B0901302C0901402D0901502E090C4
:102660001602F090170200911802109119020E94B0
:102670003E1C8901A0E00E94501C0CF447C0242F8E
:10268000352F462F572F682F792FCE0101964C01F9
:102690000E947B119F928F928CEF95E09F938F9376
:1026A0000E94C01EA0901202B0901302C0901402AB
:1026B000D0901502E0901602F090170200911802D7
:1026C000109119020F900F900F900F909501A60195
:1026D000B701C801A0E00E94501CC1F0BCF00E94EC
:1026E0006E0A0E943E1C89019A01AB01BC01C40123
:1026F0000E947B119F928F9285E296E09F938F9329
:102700000E94C01E0F900F900F900F908091DC0BD5
:10271000882309F46FC10E94C503892B09F469C09D
:1027200084E492E09F938F9381E08F9384E38F936F
:1027300080E194E09F938F9382E694E09F938F9340
:102740000E94D80980819181019709F470CF9F93ED
:102750008F938FE496E09F938F930E94530B809109
:10276000A80B9091A90B0E948E04FC0183858F9386
:1027700082858F9381858F9380858F93208131818E
:10278000428153816481758186819781A090120274
:10279000B0901302C0901402D0901502E09016027F
:1027A000F090170200911802109119020E943E1C2D
:1027B0009F938F937F936F935F934F933F932F9349
:1027C00080E996E09F938F930E94530B0FB6F89485
:1027D000DEBF0FBECDBF2BCF80918F0B8F9380912B
:1027E0008E0B8F9386ED96E09F938F930E94530BF1
:1027F00089CFE090720BF090730BE114F10411F1AA
:1028000064E070E081E090E00E946B1C8C01009716
:1028100039F0FC01F182E0828FEF9FEF9383828396
:10282000C8010E947E0797FF46C0C8010E94231D71
:102830008091720B9091730B0E94D2081092730BCF
:102840001092720BE090700BF090710BE114F10498
:10285000F9F064E070E081E090E00E946B1C8C0174
:10286000009739F0FC01F182E0828FEF9FEF9383B4
:102870008283C8010E947E0797FF2AC0C8010E9478
:10288000231DC7010E94D2081092710B1092700B89
:102890000E94DE03892B11F184E492E09F938F93D1
:1028A00081E08F938EE48F9380E194E09F938F93E8
:1028B00087ED94E043CFC8010E9464077C01FC01CE
:1028C000868197810E94670BF70117821682A8CF35
:1028D000C8010E9464070E94231DCBCF8091880B02
:1028E0009091890B18161906C4F480E097E09F9325
:1028F0008F930E94530B8091890B8F938091880B4B
:102900008F9382E397E09F938F930E94530B0F90D6
:102910000F900F900F900F900F908091860B9091D9
:10292000870B18161906C4F482E597E09F938F93DE
:102930000E94530B8091870B8F938091860B8F930E
:1029400082E897E09F938F930E94530B0F900F9014
:102950000F900F900F900F900091840B1091850BAA
:102960000115110509F059C01092850B1092840BC6
:1029700080918C0B90918D0B0E94231D8091C00B38
:102980009091C10B0E94231D8091C40B9091C50BA7
:102990000E94231D8091C80B9091C90B0E94231D9A
:1029A0008091CC0B9091CD0B0E94231D8091AC0B9C
:1029B0009091AD0B0E94231D8091B00B9091B10BB3
:1029C0000E94231D8091A80B9091A90B0E94A7083B
:1029D0008091AA0B9091AB0B0E94A7080091D80B95
:1029E0001091D90BF801828993890E94231DC80197
:1029F0000E94231D6D960FB6F894DEBF0FBECDBFAB
:102A0000DF91CF911F910F91FF90EF90DF90CF90CA
:102A1000BF90AF909F908F900895F8018080918033
:102A20008114910431F0F401E080F180E114F104AB
:102A300059F4C4010E94231DF801E280F380C8010B
:102A40000E94231D87018CCFF701808191810E9414
:102A5000231DF701C280D380C7010E94231D760188
:102A6000E5CFCF92DF92EF92FF920F931F93CF9318
:102A7000DF936C018B0180EA97E00E94D41E8BEB00
:102A800097E00E94D41E87ED97E00E94D41E84E157
:102A900098E00E94D41E87E398E00E94D41E82E84A
:102AA00098E00E94D41E8FEC98E00E94D41E81EE24
:102AB00098E00E94D41E8AE299E00E94D41E8EE320
:102AC00099E00E94D41E8AE799E00E94D41E89E80A
:102AD00099E00E94D41E83EC99E00E94D41EE80184
:102AE00010E000E082EDE82E89E0F82E0C151D05BF
:102AF00064F08EEA92E0DF91CF911F910F91FF90E9
:102B0000EF90DF90CF900C94D41E8881998122960B
:102B10009F938F93FF92EF920E94C01E0F5F1F4FF3
:102B20000F900F900F900F90E1CF2F923F924F9206
:102B30005F926F927F928F929F92AF92BF92CF924D
:102B4000DF92EF92FF920F931F93CF93DF9300D00A
:102B500000D0CDB7DEB79E838D834B0101E010E03E
:102B60008D819E81081719071CF081E090E032C02A
:102B700018012FEF221A320A3801660C771C680CF4
:102B8000791CD3015C9011964C9066ED79E0852D0F
:102B9000942D0E94A21E892B49F069ED79E0852DC4
:102BA000942D0E94A21E892B09F05CC0ED81FE814C
:102BB0002E163F0644F180EE99E09F938F930E947A
:102BC000CD0CB4018D819E810E9431150F900F9024
:102BD00090E080E026960FB6F894DEBF0FBECDBF22
:102BE000DF91CF911F910F91FF90EF90DF90CF90E9
:102BF000BF90AF909F908F907F906F905F904F901D
:102C00003F902F9008951801F2E02F0E311CD30150
:102C100012961C91129713960C9168EF79E0812F10
:102C2000902F0E94A21E892B29F4B1E0B093820B51
:102C3000810196CF6DEF79E0812F902F0E94A21E27
:102C4000892B19F41092820BF3CF0F931F93E3E0BB
:102C5000FAE0FF93EF930E94CD0C0F900F900F902E
:102C60000F90E6CF60E27AE0852D942D0E94A21E9F
:102C7000892B89F063E27AE0852D942D0E94A21EB3
:102C8000892B49F064E27AE0852D942D0E94A21EE2
:102C9000892B09F00CC1C8010296AD81BE818A174B
:102CA0009B071CF08DE29AE088CFF301E280F3806D
:102CB0001801F3E02F0E311CD30114961C911497C8
:102CC00015960C91C7010E9437192B013C01DC01BC
:102CD000CB01BB0F880B982FDC0189839A83AB83D0
:102CE000BC8340920A0250920B0260920C027092D6
:102CF0000D0280930E02998190930F02A92F909359
:102D00001002909311029201A3016A2F792F862F4E
:102D1000A0E00E94501CB1F4F7018081803391F053
:102D2000FF92EF928DE49AE09F938F930E94CD0CD7
:102D3000B4018D819E810E9431150F900F900F90EC
:102D40000F9046CF43E050E065E67AE0812F902F68
:102D50000E94B21E892BC9F4C301B20120E03AECF3
:102D60004AE95BE30E94FF1A20930A0230930B02A8
:102D700040930C0250930D0260930E0270930F0269
:102D8000809310029093110253CF44E050E064E628
:102D90007AE0812F902F0E94B21E892B39F4C30153
:102DA000B20120E432E44FE050E0DCCF44E050E0F8
:102DB00069E67AE0812F902F0E94B21E892B39F4A8
:102DC000C301B20128EE33E040E050E0CBCF44E055
:102DD00050E06EE67AE0812F902F0E94B21E892B80
:102DE00009F426CF43E050E063E77AE0812F902F8B
:102DF0000E94B21E892BA9F4A12C08E5B02E87E40D
:102E0000C82E98EFD92E2DE0E22EF12C00E010E034
:102E10009201A3016981762F862F962F0E94A71A0F
:102E2000A3CF44E050E067E77AE0812F902F0E9423
:102E3000B21E892B61F4A12CE0EABE2EF8EBCF2E56
:102E4000A0E3DA2EB6E4EB2E13E0F12EDFCF43E061
:102E500050E06CE77AE0812F902F0E94B21E892B00
:102E600059F4A12CB12C4FE4C42E51E9D52E64E9BC
:102E7000E62E7EE4F72ECACF44E050E060E87AE028
:102E8000812F902F0E94B21E892B61F4A12CB12CAE
:102E900089E2C82E99EFD92E2FE0E22E36E2F32EEA
:102EA00002E0B5CF0F931F9385E89AE03DCF6CE920
:102EB0007AE0852D942D0E94A21E892B41F065EDAC
:102EC00078E0852D942D0E94A21E892B71F52D810D
:102ED0003E81221633061CF08FE99AE06ECE18016F
:102EE00032E0230E311CD30112961C9112971396D7
:102EF0000C9168EF79E0812F902F0E94A21E892B00
:102F000021F4B1E0B093830B93CE6DEF79E0812F84
:102F1000902F0E94A21E892B19F41092830B88CE49
:102F20000F931F93ECEBFAE094CE6EED7AE0852DD3
:102F3000942D0E94A21E892B41F061EE7AE0852D2E
:102F4000942D0E94A21E892B61F58D819E812816E9
:102F500039061CF08BEE9AE030CE180192E0290E73
:102F6000311CD30112961C91129713960C91812F4C
:102F7000902F0E9419191816190674F00F931F93B9
:102F8000E1E1FBE0FF93EF930E94CD0C0F900F90D7
:102F90000F900F9081E090E09093DB0B8093DA0B21
:102FA00047CE6BE37BE0852D942D0E94A21E892BDA
:102FB00009F43ECE4F925F9286E49BE0B5CE1F921D
:102FC0000F920FB60F9211242F933F938F939F93DD
:102FD000AF93BF938091DE0B9091DF0BA091E00B3C
:102FE000B091E10B3091DD0B23E0230F2D3758F525
:102FF0000196A11DB11D2093DD0B8093DE0B9093F4
:10300000DF0BA093E00BB093E10B8091E20B90916A
:10301000E30BA091E40BB091E50B0196A11DB11D4E
:103020008093E20B9093E30BA093E40BB093E50B3A
:10303000BF91AF919F918F913F912F910F900FBEB4
:103040000F901F90189526E8230F0296A11DB11D21
:10305000D2CF1F920F920FB60F9211240BB60F9280
:103060002F933F934F935F936F937F938F939F9390
:10307000AF93BF93EF93FF9386EE9BE00E9405030F
:10308000FF91EF91BF91AF919F918F917F916F9140
:103090005F914F913F912F910F900BBE0F900FBEFC
:1030A0000F901F9018951F920F920FB60F92112438
:1030B0000BB60F922F938F939F93EF93FF93E09113
:1030C000F60BF091F70B8081E091FC0BF091FD0B7A
:1030D00082FD1DC090818091FF0B8F5F8F732091C7
:1030E000000C821741F0E091FF0BF0E0EA51F44F41
:1030F000958F8093FF0BFF91EF919F918F912F916F
:103100000F900BBE0F900FBE0F901F9018958081EF
:10311000F2CF789484B5826084BD84B5816084BD2B
:1031200085B5826085BD85B5816085BDEEE6F0E040
:10313000808181608083E1E8F0E01082808182609C
:103140008083808181608083E0E8F0E0808181601D
:103150008083E1EBF0E0808184608083E0EBF0E04D
:10316000808181608083E1E9F0E0808182608083FA
:10317000808181608083E0E9F0E0808181608083EC
:10318000E1EAF0E0808182608083808181608083D9
:10319000E0EAF0E0808181608083E1E2F1E080811B
:1031A00082608083808181608083E0E2F1E08081C1
:1031B00081608083EAE7F0E08081846080838081A1
:1031C0008260808380818160808380818068808349
:1031D0001092C1000E948D1EE6EEFBE01382128267
:1031E00088EE93E0A0E0B0E084839583A683B78364
:1031F0008DE692E09183808385EC90E095878487CB
:1032000084EC90E09787868780EC90E0918B808BB0
:1032100081EC90E0938B828B82EC90E0958B848B99
:1032200086EC90E0978B868B118E128E138E148E07
:103230000895FC0188279927E89421912032E9F329
:10324000293010F02E30C8F32B3241F02D3239F4F2
:10325000689404C00E947319820F911D219120531C
:103260002A30C0F31EF4909581959F4F08951F93C7
:10327000FC0199278827BC01E89411911032E9F3E9
:10328000193010F01E30C8F31B3251F01D3249F4D2
:10329000689406C00E945E19610F711D811D911D09
:1032A000119110531A30B0F33EF4909580957095BB
:1032B00061957F4F8F4F9F4F1F910895592F482F32
:1032C000372F262F660F771F881F991F660F771FCE
:1032D000881F991F620F731F841F951F660F771F2A
:1032E000881F991F08957AE0979F902D879F802DC2
:1032F000910D11240895E89409C097FB3EF4909530
:103300008095709561957F4F8F4F9F4F9923A9F0BE
:10331000F92F96E9BB279395F6958795779567954D
:10332000B795F111F8CFFAF4BB0F11F460FF1BC091
:103330006F5F7F4F8F4F9F4F16C0882311F096E924
:1033400011C0772321F09EE8872F762F05C06623D2
:1033500071F096E8862F70E060E02AF09A95660F8B
:10336000771F881FDAF7880F9695879597F9089544
:103370000E942A1A08F48FEF08950E94D0190C9425
:10338000651A0E94571A38F00E945E1A20F09523A1
:1033900011F00C944E1A0C94541A11240C94991A8E
:1033A0000E94761A70F3959FC1F3950F50E0551F58
:1033B000629FF001729FBB27F00DB11D639FAA278A
:1033C000F00DB11DAA1F649F6627B00DA11D661FD9
:1033D000829F2227B00DA11D621F739FB00DA11DFA
:1033E000621F839FA00D611D221F749F3327A00DB4
:1033F000611D231F849F600D211D822F762F6A2F50
:1034000011249F5750409AF0F1F088234AF0EE0FB4
:10341000FF1FBB1F661F771F881F91505040A9F7E1
:103420009E3F510580F00C944E1A0C94991A5F3F00
:10343000E4F3983ED4F3869577956795B795F7951D
:10344000E7959F5FC1F7FE2B880F911D9695879595
:1034500097F90895990F0008550FAA0BE0E8FEEFC1
:1034600016161706E807F907C0F012161306E40748
:10347000F50798F0621B730B840B950B39F40A2641
:1034800061F0232B242B252B21F408950A2609F41F
:10349000A140A6958FEF811D811D089597F99F6723
:1034A00080E870E060E008959FEF80EC08950024CC
:1034B0000A941616170618060906089500240A9499
:1034C00012161306140605060895092E0394000C1F
:1034D00011F4882352F0BB0F40F4BF2B11F460FFAE
:1034E00004C06F5F7F4F8F4F9F4F089557FD9058D7
:1034F000440F551F59F05F3F71F04795880F97FBB8
:10350000991F61F09F3F79F0879508951216130671
:103510001406551FF2CF4695F1DF08C016161706A0
:103520001806991FF1CF86957105610508940895D5
:10353000E894BB2766277727CB0197F90895EE0F0C
:10354000FF1F881F8BBF0790F691E02D1994DF9322
:10355000CF931F930F939A9DF02D219FF00D8B9D7C
:10356000F00D8A9DE02DF10D039FF00D029FE00DFF
:10357000F11D4E9DE00DF11D5E9DF00D4F9DF00D76
:103580007F936F93BF92AF925F934F93D5010E9449
:103590005C1C8B01AC01D7010E945C1CEB01E80FA5
:1035A000F91FD6010E94F61A2F913F91D6010E9471
:1035B0005C1CC60FD71FE81FF91FAF91BF910E9477
:1035C000F61A2F913F910E945C1CC60FD71FE81F6F
:1035D000F91FD6010E945C1CE60FF71F9801BE017F
:1035E000CF010F911F91CF91DF9108950E945C1C34
:1035F000460F571FC81FD91F08F43196089597FB2F
:1036000057FF0C940F1B9F938F930E940F1B6E1BF1
:103610007F0BAF91BF918A0B9B0B0895E894DF93CA
:10362000CF93FC01DB010E945C1C7F936F93E90147
:103630009A01AC01BF93AF933F932F93DF010E9498
:103640005C1C26F46C1B7D0B820B930B9E01EB0123
:10365000FC010E94F61AAF91BF912F913F910E94F9
:10366000F61ABE01CF01F9012F913F91CF91DF9161
:103670000895689401C0E894F92FF12B12F00C948E
:103680006D1BA0E0B0E0E7E4FBE10C94DF1B092E2A
:10369000059422F40E94C91B112392F4F0E80F262E
:1036A000FFEFE094F09400951095B094C094D094FE
:1036B000A194BF0ACF0ADF0AEF0AFF0A0F0B1F0B04
:1036C0000E94781B07FC0E94C91BCDB7DEB7ECE057
:1036D0000C94FB1B689401C0E8948F929F92CF9347
:1036E000DF930E94781BDF91CF919F908F90089578
:1036F00088249924F401E401B0E49F93AA279A1541
:103700008B049C04ED05FE05CF05D007A10798F4B6
:10371000AD2FDC2FCF2FFE2FE92D982C892E982F3F
:10372000872F762F652F542F432F322F2227B85003
:1037300031F7BF9127C01B2EBF91BB27220F331F2C
:10374000441F551F661F771F881F991F881C991CCF
:10375000EE1FFF1FCC1FDD1FAA1FBB1F8A149B0477
:10376000EC05FD05CE05DF05A007B10748F08A1876
:103770009B08EC09FD09CE09DF09A00BB10B216004
:103780001A94E1F62EF49401AF01BE01CD01000CB4
:1037900008956095709580959095309540955095D9
:1037A00021953F4F4F4F5F4F6F4F7F4F8F4F9F4F31
:1037B00008952F923F924F925F926F927F928F92D5
:1037C0009F92AF92BF92CF92DF92EF92FF920F93B0
:1037D0001F93CF93DF93CDB7DEB7CA1BDB0B0FB6BA
:1037E000F894DEBF0FBECDBF19942A883988488867
:1037F0005F846E847D848C849B84AA84B984C8840D
:10380000DF80EE80FD800C811B81AA81B981CE0F03
:10381000D11D0FB6F894DEBF0FBECDBFED010895E8
:10382000002E083090F0982F872F762F652F542F79
:10383000432F322F22270850F4CF220F331F441F6B
:10384000551F661F771F881F991F0A95B2F7002D15
:1038500008952A0D3B1D4C1D5D1D6E1D7F1D801F93
:10386000911F08950024A7FD00942A0F301D401DCC
:10387000501D601D701D801D901D08952A193B0963
:103880004C095D096E097F09800B910B08952A157B
:103890003B054C055D056E057F0580079107089582
:1038A0000024A7FD00942A17300540055005600547
:1038B0007005800590050895A29FB001B39FC001D7
:1038C000A39F700D811D1124911DB29F700D811D4C
:1038D0001124911D08950F931F93CF93DF93869F1B
:1038E0008001879F100D969F100D1124C8010E9422
:1038F000871CEC01009729F0A80170E060E00E94AD
:103900009B1ECE01DF91CF911F910F9108950F93D0
:103910001F93CF93DF938230910510F482E090E003
:10392000E0918B0CF0918C0C30E020E0B0E0A0E056
:10393000309799F42115310509F44AC0281B390B39
:1039400024303105D8F58A819B816115710589F193
:10395000FB0193838283FE0111C04081518102816A
:10396000138148175907E0F04817590799F4109741
:1039700061F012960C93129713961C933296CF0116
:10398000DF91CF911F910F91089500938B0C1093AD
:103990008C0CF4CF2115310551F04217530738F044
:1039A000A901DB019A01BD01DF01F801C1CFEF01DF
:1039B000F9CF90938C0C80938B0CCDCFFE01E20F4E
:1039C000F31F819391932250310939832883D7CFF4
:1039D0002091890C30918A0C232B41F420911C02F8
:1039E00030911D0230938A0C2093890C20911A0289
:1039F00030911B022115310541F42DB73EB740919E
:103A00001E0250911F02241B350BE091890CF0918E
:103A10008A0CE217F307A0F42E1B3F0B2817390777
:103A200078F0AC014E5F5F4F2417350748F04E0F1A
:103A30005F1F50938A0C4093890C819391939FCF81
:103A4000F0E0E0E09CCFCF93DF930097E9F0FC013A
:103A5000329713821282A0918B0CB0918C0CED01E5
:103A600030E020E01097A1F420813181820F931F74
:103A70002091890C30918A0C2817390709F061C010
:103A8000F0938A0CE093890CDF91CF910895EA01BD
:103A9000CE17DF07E8F54A815B819E01411551058C
:103AA000B1F7E901FB83EA8349915991C40FD51F0E
:103AB000EC17FD0761F4808191810296840F951FB8
:103AC000E90199838883828193819B838A83F0E0D3
:103AD000E0E012968D919C9113970097B9F52D9186
:103AE0003C911197CD010296820F931F2091890C72
:103AF00030918A0C2817390739F6309751F5109212
:103B00008C0C10928B0CB0938A0CA093890CBCCFB8
:103B1000D383C28340815181840F951FC817D90771
:103B200061F44E5F5F4F88819981480F591F51831F
:103B300040838A819B81938382832115310509F01B
:103B4000B0CFF0938C0CE0938B0C9ECFFD01DC0189
:103B5000C0CF13821282D7CF4F925F926F927F9223
:103B60008F929F92AF92BF92CF92DF92EF92FF928D
:103B70000F931F93CF93DF938C01009799F4CB01A0
:103B8000DF91CF911F910F91FF90EF90DF90CF9039
:103B9000BF90AF909F908F907F906F905F904F906D
:103BA0000C94871CFC01E60FF71F9C012250310981
:103BB000E217F30708F4AEC0D901CD91DC9111975B
:103BC000C617D70720F1C530D10578F0CE0104978C
:103BD0008617970750F0C61BD70B2297C193D19336
:103BE0006D937C93CF010E94231DC801DF91CF917B
:103BF0001F910F91FF90EF90DF90CF90BF90AF900B
:103C00009F908F907F906F905F904F9008955B0191
:103C1000AC1ABD0A4C018C0E9D1EA0918B0CB0916C
:103C20008C0C512C412CF12CE12C109731F580910A
:103C3000890C90918A0C8815990509F05CC046168C
:103C4000570608F058C080911A0290911B02009705
:103C500041F48DB79EB740911E0250911F02841B04
:103C6000950BE817F90708F055C0F0938A0CE0931C
:103C7000890CF90171836083B8CF8D919C91119764
:103C800012966C90129713967C901397A815B9050D
:103C900059F56C0142E0C40ED11CCA14DB0420F1BA
:103CA000AC014A195B09DA011296159780F062821D
:103CB000738251834083D9016D937C93E114F104A5
:103CC00071F0D7011396FC93EE9312978ECF229644
:103CD0008C0F9D1FF90191838083F301EFCFF09347
:103CE0008C0CE0938B0C81CF4816590608F42C01FC
:103CF0007D01D3019ACFCB010E94871C7C010097E4
:103D000049F0AE01B8010E94921EC8010E94231D15
:103D100087016BCF10E000E068CF81E090E0F8947D
:103D20000C941B22FB01DC0102C001900D9241505A
:103D30005040D8F70895DC0101C06D9341505040C8
:103D4000E0F70895FB01DC018D91019080190110CD
:103D5000D9F3990B0895FB01DC0101900D9200202D
:103D6000E1F70895FB01DC014150504030F08D91A6
:103D70000190801919F40020B9F7881B990B089558
:103D8000CF93DF93CDB7DEB7AE014A5F5F4FFA0145
:103D900061917191AF018091850C9091860C0E9488
:103DA000751FDF91CF9108950F931F93CF93DF93EA
:103DB000E091850CF091860C2381EC0110E000E08D
:103DC00021FD08C00FEF1FEF14C01995892B11F0CA
:103DD0000FEF1FEF89916091850C7091860CDB01CC
:103DE0001896ED91FC918111F0CF8AE01995892BFD
:103DF00049F7C801DF91CF911F910F9108950F935B
:103E00001F93CF93DF93CDB7DEB72E970FB6F894FD
:103E1000DEBF0FBECDBF0E891F89888D998D26E02C
:103E20002C831A83098397FF02C080E090E80197F2
:103E30009E838D83AE01445E5F4F6A8D7B8DCE0184
:103E400001960E94751F4D815E8157FD0AC02F812A
:103E50003885421753070CF49A01020F131FF8011B
:103E600010822E960FB6F894DEBF0FBECDBFDF9145
:103E7000CF911F910F9108950F931F93CF93DF93CD
:103E8000CDB7DEB72E970FB6F894DEBF0FBECDBF0D
:103E90008C01FA0186E08C831A83098377FF02C0C4
:103EA00060E070E8615071097E836D83A901BF01F4
:103EB000CE0101960E94751F4D815E8157FD0AC09B
:103EC0002F813885421753070CF49A01020F131FF4
:103ED000F80110822E960FB6F894DEBF0FBECDBF4C
:103EE000DF91CF911F910F9108952F923F924F92A2
:103EF0005F926F927F928F929F92AF92BF92CF927A
:103F0000DF92EF92FF920F931F93CF93DF9300D036
:103F100000D000D01F921F92CDB7DEB77C013B01CD
:103F20008A01FC0117821682838181FFDDC1CE01E7
:103F300001965C01F7019381F30193FD859193FF55
:103F400081913F01882309F453C1853239F493FDEF
:103F5000859193FF81913F01853229F4B70190E06B
:103F60000E948D21E7CF912C212C312CFFE1F315FC
:103F700038F08B3211F190F4803209F1833229F15B
:103F800037FC3CC020ED280F2A3050F536FE20C00B
:103F90008AE0989E200D1124922E06C08D3291F059
:103FA000803371F7689430F8F30193FD859193FFA6
:103FB00081913F018111DACF21C0689431F8689472
:103FC00032F8F2CF689433F8EFCF689434F8ECCF3E
:103FD000EAE02E9E200D1124222E689435F8E4CFBD
:103FE0008E3229F436FC04C1689436F8DDCF8C3665
:103FF00019F4689437F8D8CF8836B1F2982F9F7D9E
:1040000095549330E0F08336A1F18337C1F18335C5
:1040100009F063C02801F2E04F0E511CF801C08086
:10402000D180692D70E036FC02C06FEF7FEFC601D2
:104030000E9477214C01689437F882010AC00C5F16
:104040001F4FFFE3F98388248394912C6501E89442
:1040500037F833FE2DC0522C8114910471F5552090
:1040600009F468CFB70180E290E00E948D215A9454
:10407000F6CFF801808189830E5F1F4FE4CF2801BE
:10408000F2E04F0E511CF801C080D180692D70E024
:1040900036FC02C06FEF7FEFC6010E9482214C0107
:1040A0008201D5CFB70180E290E00E948D212A9451
:1040B0002814190409F0B0F7CECFF60137FC85912A
:1040C00037FE81916F01B70190E00E948D21511060
:1040D0005A94F1E08F1A9108BFCF843619F08936CF
:1040E00009F077C0F80137FE6BC060817181828171
:1040F00093810C5F1F4FF32DFF763F2E97FF09C072
:1041000090958095709561957F4F8F4F9F4F6894E4
:1041100037F82AE030E0A5010E94BD21C82ECA1858
:104120008C2C432C36FE0CC0E89440F8C91440F4A3
:1041300034FE05C032FC03C0F32DFE7E4F2E892CC9
:1041400044FEAAC0FE01EC0DF11D8081803309F010
:104150009CC0242D297E422E842D8870582E43FC2D
:10416000AAC040FEA4C09C2C821418F42C0C922CE3
:10417000981844FEA6C0B70180E390E00E948D210C
:1041800042FE09C088E790E041FE02C088E590E069
:10419000B7010E948D21C91408F49FC0CA94D12C84
:1041A0009FEFC91AD90ACA0CDB1CF60182916F0174
:1041B000B70190E00E948D21AC14BD04B1F74FCF40
:1041C00060817181072E000C880B990B0E5F1F4FC9
:1041D00092CFD32CE894D4F82AE030E08537E1F18F
:1041E000232D297FD22E8F36A9F1F0F4883551F195
:1041F000F701868197812B960FB6F894DEBF0FBE2C
:10420000CDBFDF91CF911F910F91FF90EF90DF9085
:10421000CF90BF90AF909F908F907F906F905F9066
:104220004F903F902F900895803749F0883701F7DD
:10423000D4FE02C06894D2F820E130E00DC068944A
:10424000D4F8F6CF34FE03C0822F8660D82E20E14A
:1042500032E002C028E030E0F801D7FE0FC06081F4
:104260007181828193810C5F1F4FA5010E94BD2146
:10427000C82ECA183D2CE89437F852CF608171815E
:1042800090E080E00E5F1F4FF0CF42FC02C08394AD
:1042900063CF8394839460CF842D867809F45CCFB8
:1042A000F6CFB70180E290E00E948D2183948214C2
:1042B000C0F3512C5ECF522C5818821408F459CFF9
:1042C000F8CF842D867809F466CF8BE241FE80E238
:1042D00047FC8DE2B70190E05CCFB70180E390E04E
:1042E0000E948D219A9457CF8FEF9FEF84CFFC01CE
:1042F0000590615070400110D8F7809590958E0F11
:104300009F1F0895FC016150704001900110D8F783
:10431000809590958E0F9F1F08950F931F93CF93B5
:10432000DF93182F092FEB018B8181FD09C01FEF4F
:104330000FEF812F902FDF91CF911F910F91089553
:1043400082FF14C02E813F818C819D8128173907FF
:104350003CF4E881F981CF01019699838883108329
:104360008E819F8101969F838E83E3CFE885F985B7
:10437000812F1995892BA1F3DACFFA01AA272830CA
:1043800051F1203181F1E8946F936E7F6E5F7F4F22
:104390008F4F9F4FAF4FB1E03ED0B4E03CD0670F9E
:1043A000781F891F9A1FA11D680F791F8A1F911DF1
:1043B000A11D6A0F711D811D911DA11D20D009F441
:1043C00068943F912AE0269F11243019305D319383
:1043D000DEF6CF010895462F4770405D4193B3E06C
:1043E0000FD0C9F7F6CF462F4F70405D4A3318F013
:1043F000495D31FD4052419302D0A9F7EACFB4E0C4
:10440000A6959795879577956795BA95C9F700977B
:104410006105710508959B01AC010A2E069457951C
:10442000479537952795BA95C9F7620F731F841F73
:0A443000951FA01D0895F894FFCF1A
:10443A000000000000000080FFFFFFFFFFFFFFFFFA
:10444A00FFFF000000000000008000008D0C8000CB
:10445A005F6C665F667265655F746F6B656E5F76CB
:10446A00616C7565005F6C665F667265655F746F27
:10447A006B656E005F6C665F667265655F616C6C2A
:10448A005F746F6B656E73006C665F74696D655FF0
:10449A00706879736963616C0000000000270391FA
:1044AA0002BE027403EF02CD02E1024B6E69676835
:1044BA007420526964657220656666656374202893
:1044CA004C4629207374617274696E67206F6E207E
:1044DA0041726475696E6F204D656761000D0A004F
:1044EA00257325730A004C45442061742070696E57
:1044FA00200044454255473A2000464154414C2049
:10450A004552524F523A200066696E645F65717572
:10451A00616C5F73616D655F7072696F72697479DE
:10452A0028292063616C6C6564207769746820614E
:10453A00206E6567617469766520706F7320696E95
:10454A006465782E002F686F6D652F6D61626F6EDE
:10455A0061332F4465736B746F702F70726F6A6565
:10456A006374732F6370726F6A2F6F6D61722F732A
:10457A0072632D67656E2F4B6E6967687452696442
:10458A0065722F7372632F636F72652F7461672E62
:10459A006300604661696C656420746F20726561AE
:1045AA006420706879736963616C20636C6F636BF4
:1045BA002E602E204661696C656420617373657292
:1045CA0074696F6E20696E2025733A2564282573F5
:1045DA00293A286C665F636C6F636B5F67657474F6
:1045EA00696D6528266E6F77292920213D2066612D
:1045FA006C736560004F7574206F66206D656D6F12
:10460A00727921005741524E494E473A2000546F61
:10461A006B656E206265696E6720667265656420E7
:10462A00746861742068617320616C726561647971
:10463A00206265656E2066726565643A20257000A1
:10464A002F686F6D652F6D61626F6E61332F4465E0
:10465A00736B746F702F70726F6A656374732F63F4
:10466A0070726F6A2F6F6D61722F7372632D676537
:10467A006E2F4B6E6967687452696465722F737224
:10468A00632F636F72652F6C665F746F6B656E2E36
:10469A00630060436F756C64206E6F7420656E747E
:1046AA00657220637269746963616C2073656374EF
:1046BA00696F6E602E204661696C65642061737350
:1046CA00657274696F6E20696E2025733A256428B5
:1046DA002573293A28216C665F637269746963617C
:1046EA006C5F73656374696F6E5F656E746572285B
:1046FA002828766F6964202A293029292920213D12
:10470A002074727565600060436F756C64206E6F0B
:10471A0074206578697420637269746963616C20B6
:10472A0073656374696F6E602E204661696C656497
:10473A0020617373657274696F6E20696E202573C8
:10474A003A2564282573293A28216C665F637269C1
:10475A00746963616C5F73656374696F6E5F6578B2
:10476A006974282828766F6964202A29302929291A
:10477A0020213D207472756560004F7574206F6644
:10478A00206D656D6F72793A206661696C65642087
:10479A00746F207365747570205F6C665F746F6BDD
:1047AA00656E5F72656379636C696E675F62696E75
:1047BA000050757474696E6720746F6B656E20257E
:1047CA0070206F6E207468652072656379636C6906
:1047DA006E672062696E2C20627574206974206984
:1047EA007320616C726561647920746865726521F1
:1047FA0000436F756C64206E6F7420696E73657206
:10480A0074207265616374696F6E20696E746F20BB
:10481A007265616374696F6E5F710030002D0025E7
:10482A006C6C64002C2530336C6C64002D2D2D2D9E
:10483A0020456C6170736564206C6F676963616C95
:10484A002074696D652028696E206E736563293A44
:10485A002025730A002D2D2D2D20456C617073655E
:10486A006420706879736963616C2074696D65206E
:10487A0028696E206E736563293A2025730A002D14
:10488A002D2D2D2054686572652061726520257A68
:10489A007520756E70726F636573736564206675D3
:1048AA0074757265206576656E7473206F6E2074F8
:1048BA006865206576656E742071756575652E006C
:1048CA002D2D2D2D2054686520666972737420661B
:1048DA007574757265206576656E742068617320DB
:1048EA0074696D657374616D702028256C752C2050
:1048FA00256C7529206166746572207374617274FF
:10490A00207461672E002D2D2D2D20456E7669723B
:10491A006F6E6D656E7420257520776173206E65E4
:10492A0076657220696E697469616C697A6564007A
:10493A004D656D6F727920616C6C6F63617465642B
:10494A0020666F72206D6573736167657320686195
:10495A0073206E6F74206265656E20667265656489
:10496A002E004E756D626572206F6620756E6672D6
:10497A00656564206D657373616765733A202564A4
:10498A002E004D656D6F727920616C6C6F63617476
:10499A00656420666F7220746F6B656E7320686140
:1049AA0073206E6F74206265656E20667265656439
:1049BA0021004E756D626572206F6620756E667293
:1049CA0065656420746F6B656E733A2025642E00EA
:1049DA000A436F6D6D616E642D6C696E652061723C
:1049EA0067756D656E74733A200A0020202D662C57
:1049FA00202D2D66617374205B74727565207C208E
:104A0A0066616C73655D002020205768657468656F
:104A1A007220746F207761697420666F72207068E3
:104A2A0079736963616C2074696D6520746F206D98
:104A3A0061746368206C6F676963616C2074696D67
:104A4A00652E0A0020202D6F2C202D2D74696D658E
:104A5A006F7574203C6475726174696F6E3E203C98
:104A6A00756E6974733E0020202053746F70206144
:104A7A006674657220746865207370656369666917
:104A8A00656420616D6F756E74206F66206C6F6748
:104A9A006963616C2074696D652C2077686572653D
:104AAA0020756E69747320617265206F6E65206F60
:104ABA0066002020206E7365632C20757365632C55
:104ACA00206D7365632C207365632C206D696E7588
:104ADA0074652C20686F75722C206461792C20779C
:104AEA0065656B2C206F722074686520706C757216
:104AFA00616C73206F662074686F73652E0A0020DC
:104B0A00202D6B2C202D2D6B656570616C69766587
:104B1A00002020205768657468657220636F6E7480
:104B2A00696E756520657865637574696F6E206551
:104B3A0076656E207768656E207468657265206197
:104B4A007265206E6F206576656E747320746F20AF
:104B5A0070726F636573732E0A0020202D772C20E4
:104B6A002D2D776F726B657273203C6E3E0020208C
:104B7A0020457865637574656420696E203C6E3ED5
:104B8A00207468726561647320696620706F73733C
:104B9A0069626C6520286F7074696F6E616C20663B
:104BAA00656174757265292E0A0020202D692C20F2
:104BBA002D2D6964203C6E3E00202020546865201B
:104BCA004944206F66207468652066656465726171
:104BDA0074696F6E207468617420746869732072D6
:104BEA00656163746F722077696C6C206A6F696E95
:104BFA002E0A00436F6D6D616E6420676976656E7B
:104C0A003A00257320002D66002D2D66617374000D
:104C1A002D2D66617374206E656564732061206250
:104C2A006F6F6C65616E2E00747275650066616CDB
:104C3A00736500496E76616C69642076616C75658E
:104C4A0020666F72202D2D666173743A20257300D9
:104C5A002D6F002D2D74696D656F7574002D2D747F
:104C6A00696D656F7574206E656564732074696D0E
:104C7A006520616E6420756E6974732E00496E76C4
:104C8A00616C69642074696D652076616C75653A3A
:104C9A00202573006D7365630075736563006E7319
:104CAA006563006D696E00686F75720064617900F2
:104CBA007765656B00496E76616C69642074696D0D
:104CCA006520756E6974733A202573002D6B002D6B
:104CDA002D6B656570616C697665206E65656473B8
:104CEA00206120626F6F6C65616E2E00496E76617D
:104CFA006C69642076616C756520666F72202D2D53
:104D0A006B656570616C6976653A202573002D774D
:104D1A00002D2D776F726B657273002D2D776F7270
:104D2A006B657273206E6565647320616E20696EAF
:104D3A00746567657220617267756D656E742E732E
:104D4A0000496E76616C69642076616C75652066CF
:104D5A006F72202D2D776F726B6572733A202573EF
:104D6A002E205573696E6720312E002D2D726F73B8
:104D7A002D6172677300556E7265636F676E697A2B
:104D8A00656420636F6D6D616E642D6C696E65205C
:0E4D9A00617267756D656E743A2025730000B6
:00000001FF
